:04000000DEEF0DF032
:100D000000436F6D6D616E642053656E74202841E1
:100D10007272617920526574726163746564290D21
:100D20000A00436F6D6D616E642053656E742028F8
:100D3000417272617920457874656E646564290D2D
:100D40000A00436F6D6D616E642053656E742028D8
:100D50004172726179204261636B77617264290D1F
:100D60000A00436F6D6D616E642053656E742028B8
:100D7000417272617920466F7277617264290D0A3F
:100D800000436F6D6D616E642053656E7420284161
:100D90007272617920437573746F6D290D0A0000BA
:100DA0003AEC0EF00EEC0DF0800E0F6E250E106E6C
:100DB000000E116E000E126E6DEC0DF0FBEC0DF0DE
:100DC00012EC0EF0000E1E6E000E1D6E000E206E58
:100DD000000E1F6E000E226E000E216E000E246E9D
:100DE000000E236E000E266E000E256E000E286E7D
:100DF000000E276E000E2A6E000E296E000E2C6E5D
:100E0000000E2B6E898E000E316E000E306E010EBC
:100E1000336E900E326E000E2E6E000E2D6E31EC83
:100E20000EF00009D8B471D147EC0EF02F6E000E11
:100E30003A6E000E396E000E3C6E000E3B6E000ED8
:100E40003E6E000E3D6E000E406E000E3F6E000EB8
:100E5000426E000E416E000E446E000E436E000E98
:100E6000466E000E456E000E486E000E476E897E7F
:100E7000650E2F18D8A411D0000E376E000E346EF8
:100E8000010E366E000E386E000E356E220E026EAA
:100E90000D0E036EB9EC0DF038D1720E2F18D8A4D8
:100EA00011D0000E376E000E346E000E366E010E3D
:100EB000386E000E356E010E026E0D0E036EB9EC2B
:100EC0000DF023D1660E2F18D8A411D0010E376E65
:100ED000000E346E000E366E000E386E000E356E4B
:100EE000620E026E0D0E036EB9EC0DF00ED1620EA5
:100EF0002F18D8A411D0000E376E010E346E000EDC
:100F0000366E000E386E000E356E420E026E0D0EFD
:100F1000036EB9EC0DF0F9D0300E2F18D8A415D00F
:100F2000000E376E000E346E000E366E000E386EF8
:100F3000010E356E000E2E6E000E2D6E810E026EAD
:100F40000D0E036EB9EC0DF0E0D0310E2F18D8A4C1
:100F500015D0000E376E000E346E000E366E000E89
:100F6000386E010E356E000E2E6E320E2D6E810E15
:100F7000026E0D0E036EB9EC0DF0C7D0320E2F18B5
:100F8000D8A415D0000E376E000E346E000E366EEB
:100F9000000E386E010E356E000E2E6E640E2D6E34
:100FA000810E026E0D0E036EB9EC0DF0AED0330E55
:100FB0002F18D8A415D0000E376E000E346E000E18
:100FC000366E000E386E010E356E000E2E6E960EC9
:100FD0002D6E810E026E0D0E036EB9EC0DF095D0E4
:100FE000340E2F18D8A415D0000E376E000E346EB4
:100FF000000E366E000E386E010E356E000E2E6E2F
:10100000C80E2D6E810E026E0D0E036EB9EC0DF042
:101010007CD0350E2F18D8A415D0000E376E000ED8
:10102000346E000E366E000E386E010E356E000EF8
:101030002E6EFA0E2D6E810E026E0D0E036EB9EC41
:101040000DF063D0360E2F18D8A415D0000E376ED1
:10105000000E346E000E366E000E386E010E356EC8
:10106000010E2E6E2C0E2D6E810E026E0D0E036E75
:10107000B9EC0DF04AD0370E2F18D8A415D0000EB9
:10108000376E000E346E000E366E000E386E010E96
:10109000356E010E2E6E5E0E2D6E810E026E0D0EE1
:1010A000036EB9EC0DF031D0380E2F18D8A415D03E
:1010B000000E376E000E346E000E366E000E386E67
:1010C000010E356E010E2E6E900E2D6E810E026E8B
:1010D0000D0E036EB9EC0DF018D0390E2F18D8A4F0
:1010E00014D0000E376E000E346E000E366E000EF9
:1010F000386E010E356E010E2E6EC20E2D6E810EF3
:10110000026E0D0E036EB9EC0DF039503A10D8A4F2
:1011100008D070EC0EF024EC0EF001C01DF002C0FF
:101120001EF03B503C10D8A408D06BEC0EF024EC21
:101130000EF001C01FF002C020F03D503E10D8A4B8
:1011400008D066EC0EF024EC0EF001C021F002C0D5
:1011500022F03F504010D8A408D061EC0EF024ECEF
:101160000EF001C023F002C024F041504210D8A478
:1011700008D05CEC0EF024EC0EF001C025F002C0AB
:1011800026F043504410D8A408D057EC0EF024ECBD
:101190000EF001C027F002C028F045504610D8A438
:1011A00008D052EC0EF024EC0EF001C029F002C081
:1011B0002AF047504810D8A408D04DEC0EF024EC8B
:1011C0000EF001C02BF002C02CF03704D8A49AD046
:1011D0003450D8A497D03650D8A494D03850D8A43E
:1011E00091D01DC001F01EC002F030C003F031C02C
:1011F00004F0000E066E000E056E390E076E000E2E
:10120000086EEFEC0BF01FC001F020C002F032C0FE
:1012100003F033C004F0000E066E010E056E3B0EA7
:10122000076E000E086EEFEC0BF021C001F022C03B
:1012300002F030C003F031C004F0000E066E020E62
:10124000056E3D0E076E000E086EEFEC0BF023C02E
:1012500001F024C002F032C003F033C004F0000EED
:10126000066E030E056E3F0E076E000E086EEFEC65
:101270000BF025C001F026C002F032C003F033C0ED
:1012800004F0000E066E040E056E410E076E000E91
:10129000086EEFEC0BF027C001F028C002F030C060
:1012A00003F031C004F0000E066E050E056E430E0D
:1012B000076E000E086EEFEC0BF029C001F02AC09B
:1012C00002F032C003F033C004F0000E066E060ECA
:1012D000056E450E076E000E086EEFEC0BF02BC08E
:1012E00001F02CC002F030C003F031C004F0000E59
:1012F000066E070E056E470E076E000E086EEFECC9
:101300000BF08DD53404D8A49AD03750D8A497D0F8
:101310003650D8A494D03850D8A491D01DC001F034
:101320001EC002F032C003F033C004F0000E066E9F
:10133000000E056E390E076E000E086EEFEC0BF016
:101340001FC001F020C002F030C003F031C004F033
:10135000000E066E010E056E3B0E076E000E086E47
:10136000EFEC0BF021C001F022C002F032C003F01C
:1013700033C004F0000E066E020E056E3D0E076EC1
:10138000000E086EEFEC0BF023C001F024C002F059
:1013900030C003F031C004F0000E066E030E056E7F
:1013A0003F0E076E000E086EEFEC0BF025C001F04B
:1013B00026C002F030C003F031C004F0000E066E0B
:1013C000040E056E410E076E000E086EEFEC0BF07A
:1013D00027C001F028C002F032C003F033C004F08F
:1013E000000E066E050E056E430E076E000E086EAB
:1013F000EFEC0BF029C001F02AC002F030C003F07E
:1014000031C004F0000E066E060E056E450E076E26
:10141000000E086EEFEC0BF02BC001F02CC002F0B8
:1014200032C003F033C004F0000E066E070E056EE6
:10143000470E076E000E086EEFEC0BF0F0D437503D
:10144000D8A49AD03450D8A497D03604D8A494D035
:101450003850D8A491D01DC001F01EC002F032C097
:1014600003F033C004F0000E066E000E056E390E58
:10147000076E000E086EEFEC0BF01FC001F020C0ED
:1014800002F032C003F033C004F0000E066E010E0D
:10149000056E3B0E076E000E086EEFEC0BF021C0E0
:1014A00001F022C002F032C003F033C004F0000E9D
:1014B000066E020E056E3D0E076E000E086EEFEC16
:1014C0000BF023C001F024C002F032C003F033C09F
:1014D00004F0000E066E030E056E3F0E076E000E42
:1014E000086EEFEC0BF025C001F026C002F032C010
:1014F00003F033C004F0000E066E040E056E410EBC
:10150000076E000E086EEFEC0BF027C001F028C04C
:1015100002F032C003F033C004F0000E066E050E78
:10152000056E430E076E000E086EEFEC0BF029C03F
:1015300001F02AC002F032C003F033C004F0000E04
:10154000066E060E056E450E076E000E086EEFEC79
:101550000BF02BC001F02CC002F032C003F033C0FE
:1015600004F0000E066E070E056E470E076E000EA5
:10157000086EEFEC0BF053D43750D8A49ED0345003
:10158000D8A49BD03650D8A498D03850D8A495D0A1
:101590003504D8A492D01DC001F01EC002F02DC0A9
:1015A00003F02EC004F0000E066E000E056E390E1C
:1015B000076E000E086EEFEC0BF01FC001F020C0AC
:1015C00002F02DC003F02EC004F0000E066E010ED6
:1015D000056E3B0E076E000E086EEFEC0BF021C09F
:1015E00001F022C002F02DC003F02EC004F0000E66
:1015F000066E020E056E3D0E076E000E086EEFECD5
:101600000BF023C001F024C002F02DC003F02EC067
:1016100004F0000E066E030E056E3F0E076E000E00
:10162000086EEFEC0BF025C001F026C002F02DC0D3
:1016300003F02EC004F0000E066E040E056E410E7F
:10164000076E000E086EEFEC0BF027C001F028C00B
:1016500002F02DC003F02EC004F0000E066E050E41
:10166000056E430E076E000E086EEFEC0BF029C0FE
:1016700001F02AC002F02DC003F02EC004F0000ECD
:10168000066E060E056E450E076E000E086EEFEC38
:101690000BF02BC001F02CC002F02DC003F02EC0C7
:1016A00004F0000E066E070E056E470E076E000E64
:1016B000086EEFEC0BF00FEF07F01DC001F01EC03D
:1016C00002F030C003F031C004F0000E066E000ED0
:1016D000056E390E076E000E086EEFEC0BF01FC0A2
:1016E00001F020C002F030C003F031C004F0000E61
:1016F000066E010E056E3B0E076E000E086EEFECD7
:101700000BF021C001F022C002F030C003F031C064
:1017100004F0000E066E020E056E3D0E076E000E02
:10172000086EEFEC0BF023C001F024C002F030C0D3
:1017300003F031C004F0000E066E030E056E3F0E7E
:10174000076E000E086EEFEC0BF025C001F026C00E
:1017500002F030C003F031C004F0000E066E040E3B
:10176000056E410E076E000E086EEFEC0BF027C001
:1017700001F028C002F030C003F031C004F0000EC8
:10178000066E050E056E430E076E000E086EEFEC3A
:101790000BF029C001F02AC002F030C003F031C0C4
:1017A00004F0000E066E060E056E450E076E000E66
:1017B000086EEFEC0BF02BC001F02CC002F030C033
:1017C00003F031C004F0000E066E070E056E470EE2
:1017D000076E000E086EEFEC0BF00FEF07F007C07E
:1017E000D9FF08C0DAFFDE50DE10D8A42BD003509A
:1017F000015C04500258D8B008D0000E0C6E000EE8
:101800000B6E000E0E6E010E0AD00150035C0250EA
:101810000458D8B006D0000E0C6E010E16D00D6E16
:1018200019D0000E0C6E000E0B6E000E0E6E000E28
:101830000D6E07C0D9FF08C0DAFF010EDE6E000E84
:10184000DD6E08D0000E0C6E000E0B6E000E0E6EDC
:10185000000EE5D705500610D8A40BD00BB002D06F
:101860008B9001D08B800DB002D08B9201D08B82F7
:10187000120005040610D8A40BD00BB002D08B9434
:1018800001D08B840DB002D08B9601D08B861200D4
:10189000020E05180610D8A40BD00BB002D08C9005
:1018A00001D08C800DB002D08C9201D08C821200BD
:1018B000030E05180610D8A40BD00BB002D08C94E0
:1018C00001D08C840DB002D08C9601D08C86120091
:1018D000040E05180610D8A40BD00BB002D08B98BC
:1018E00001D08B880DB002D08B9A01D08B8A120068
:1018F000050E05180610D8A40BD00BB002D08A90A4
:1019000001D08A800DB002D08A9201D08A82120062
:10191000060E05180610D8A40BD00BB002D08C9878
:1019200001D08C880DB002D08C9A01D08C8A120024
:10193000070E05180610D8A412000BB002D08C9C1C
:1019400001D08C8C0DB002D08C9E01D08C8E1200F8
:10195000000E0A6E08AE0AD0081E071E061E056C91
:10196000000E062207220822010E0A6E04AE0AD0DB
:10197000041E031E021E016C000E0222032204221A
:10198000010E0A1A000E0B6E000E0C6E000E0D6E8C
:10199000000E0E6E0550061007100810D8B42AD09D
:1019A000010E096E06D0D890053606360736083681
:1019B000092A08AEF8D7D8900B360C360D360E36FD
:1019C0000550015C0650025807500358085004584F
:1019D000D8A009D00550015E0650025A0750035A9C
:1019E0000850045A0B80D89008320732063205326C
:1019F000092EE1D70A50D8B408D00E1E0D1E0C1EB9
:101A00000B6C000E0C220D220E220BC001F00CC03C
:101A100002F00DC003F00EC004F012009394938600
:101A20006F8E6EAE6EAC02D06EBAFBD7739A709E9C
:101A3000709C709A70987096709470927080718E8D
:101A4000718C719A7198718671947182719072948F
:101A500072927280779E779C609C608A000E046E02
:101A60000A0E036E070E066E056803C001F004C07F
:101A700002F0023402320132023402320132023404
:101A80000232013201500F01006F0338E846E00BCB
:101A90000F01016F05C001F006C002F002340232EE
:101AA0000132023402320132023402320132015078
:101AB0000F01186F0538E846E00B0F01196F0F0191
:101AC00001970D01D4816F9E6F9C6F9A6EAE1200CC
:101AD0006EAC12006EAA1200F9D70FC013F010C03E
:101AE00014F011C015F012C016F0060ED89013367F
:101AF000143615361636E82EF9D7131E141E151E89
:101B0000161E132A000E142215221622000E13246C
:101B1000016E480E1420026EE80E1520036E010EB1
:101B20001620046E0FC017F010C018F011C019F085
:101B300012C01AF0060ED8901736183619361A3613
:101B4000E82EF9D717C005F018C006F019C007F045
:101B50001AC008F0A8EC0CF001C01BF002C01CF089
:101B60001BC0AFFFAC98AB8E948E949CAB88AC8AB4
:101B70001200000E076E000E066E10D006500224F2
:101B8000046E07500320056E04C0F6FF05C0F7FF82
:101B90000800F55041EC0EF0064A072A06500224D0
:101BA000046E07500320056E04C0F6FF05C0F7FF62
:101BB0000800F5500009D8B41200E0D700EE34F068
:101BC000150EEE6AE806FDE1EA0EF66E1C0EF76EE3
:101BD000000EF86E00EE49F010EE04F00900F5CFAB
:101BE000EEFFE550E150FAE1000EF86E0D0EF76ED3
:101BF0000001D0EF06F0C190C192C194C196C08E91
:101C0000C198C19AC09AC088C096C094C082C09042
:101C10009280928292849286928A9680968296840C
:101C2000C280120095909592959495969598959A64
:101C3000959C959E94909492949494969498949A4A
:101C400093909392929E1200C282C2B2FED7C3CFEB
:101C500003F0046AC450042603C001F004C002F07B
:101C60001200010E016E9EAA9EBA02D0000E016EF5
:101C700001501200D38CD38AD388D392D3909B8CFB
:101C80001200016EACA2FED701C0ADFF12009EAAE9
:101C90009EBA01D0FCD7AE501200C250C30B1C0933
:101CA000C26E1200C250C30B1809C26E1200C2509D
:101CB000C30B1409C26E1200C250C30B1009C26ECE
:101CC0001200C250C30B0C09C26E1200C250C30BEB
:101CD0000809C26E1200C250C30B0409C26E120082
:0E1CE000C294C296C298C29A12002003C80095
:020000040020DA
:08000000FFFFFFFFFFFFFFFF00
:020000040030CA
:0E000000FF081F1EFF8285FF3FC03FE03F400C
:00000001FF
