:040000000AEFBCF057
:020000040001F9
:10777000609E12002003C800C294C296C298C29AAA
:107780001200C250C30B0409C26E1200C250C30BD8
:107790000809C26E1200C250C30B0C09C26E12005F
:1077A000C250C30B1009C26E1200C250C30B1409A1
:1077B000C26E1200C250C30B1809C26E1200C25032
:1077C000C30B1C09C26E1200D38CD38AD388D39208
:1077D000D3909B8C1200C282C2B2FED7C3CF03F0FB
:1077E000046AC450042603C001F004C002F0120071
:1077F00095909592959495969598959A959C959E29
:1078000094909492949494969498949A949C949E20
:10781000929E120000EE2EF0120EEE6AE806FDE1D6
:10782000740EF66E770EF76E010EF86E00EE40F0F5
:1078300010EE04F00900F5CFEEFFE550E150FAE15B
:107840000001C6EFBDF0C190C192C194C196C08E37
:10785000C198C19AC09AC088C096C094C082C09096
:107860009280928292849286928A96809682968460
:10787000938293889380C2801200939493866F8E34
:107880006EAE6EAC02D06EBAFBD7739A709E709CCF
:10789000709A70987096709470927080718E718CDE
:1078A000719A7198718671947182719072947292CA
:1078B0007280779E779C609C608A000E046E0A0E30
:1078C000036E070E066E056803C001F004C002F0E7
:1078D0000234023201320234023201320234023204
:1078E000013201500F01006F0338E846E00B0F0131
:1078F000016F05C001F006C002F00234023201320D
:1079000002340232013202340232013201500F01DC
:10791000186F0538E846E00B0F01196F0F0101974A
:107920000D01D4816F9E6F9C6F9A6EAE12006EAC8B
:1079300012006EAA1200F9D720EE07F00150D926E6
:107940000250DA226DCFDFFF20EE06F00150D9267B
:107950000250DA226CCFDFFF20EE05F00150D9266D
:107960000250DA226BCFDFFF20EE04F00150D9265F
:107970000250DA226ACFDFFF20EE03F00150D92651
:107980000250DA2269CFDFFF20EE02F00150D92643
:107990000250DA2268CFDFFF20EE01F00150D92635
:1079A0000250DA2267CFDFFF01C0D9FF02C0DAFF41
:1079B00066CFDFFF6150036E046AD8900336043649
:1079C000D89003360436D8900336043620EE08F0FB
:1079D0000150D9260250DA2203C0DEFF04C0DDFFC9
:1079E00020EE08F00150D9260250DA2262CF03F0CF
:1079F000050E046ED8900332042EFCD70350DE121D
:107A0000000EDD1220EE0AF00150D9260250DA22D3
:107A100065500F0BDF6E609E120007C0D9FF08C0D3
:107A2000DAFFDE50DE10D8A42BD00350015C0450E6
:107A30000258D8B008D0000E0C6E000E0B6E000E6F
:107A40000E6E010E0AD00150035C02500458D8B0EB
:107A500006D0000E0C6E010E16D00D6E19D0000E61
:107A60000C6E000E0B6E000E0E6E000E0D6E07C03B
:107A7000D9FF08C0DAFF010EDE6E000EDD6E08D001
:107A8000000E0C6E000E0B6E000E0E6E000EE5D793
:107A900005500610D8A40BD00BB002D08B9001D0AB
:107AA0008B800DB002D08B9201D08B821200050426
:107AB0000610D8A40BD00BB002D08B9401D08B84CD
:107AC0000DB002D08B9601D08B861200020E0518E5
:107AD0000610D8A40BD00BB002D08C9001D08C80B3
:107AE0000DB002D08C9201D08C821200030E0518CA
:107AF0000610D8A40BD00BB002D08C9401D08C848B
:107B00000DB002D08C9601D08C861200040E0518A0
:107B10000610D8A40BD00BB002D08B9801D08B8864
:107B20000DB002D08B9A01D08B8A1200050E051879
:107B30000610D8A40BD00BB002D08B9C01D08B8C3C
:107B40000DB002D08B9E01D08B8E1200060E051850
:107B50000610D8A40BD00BB002D08C9801D08C8822
:107B60000DB002D08C9A01D08C8A1200070E051835
:107B70000610D8A412000BB002D08C9C01D08C8CC3
:107B80000DB002D08C9E01D08C8E1200E4ECBBF0C4
:107B90003DECBCF023ECBCF0F8ECBBF0000E126E38
:107BA000000E116E000E146E000E136E000E166E97
:107BB000000E156E000E186E000E176E000E1A6E77
:107BC000000E196E000E1C6E000E1B6E000E1E6E57
:107BD000000E1D6E000E106E000E0F6E000E206E59
:107BE000C80E1F6E030E2D6E200E2C6E60AE3FD0A1
:107BF000210E016E000E026E9CECBCF0000E336E86
:107C0000000E326E000E356E000E346E000E376EB2
:107C1000000E366E000E396E000E386E000E3B6E92
:107C2000000E3A6E000E3D6E000E3C6E000E3F6E72
:107C3000000E3E6E000E2F6E000E2E6E897E2150BD
:107C4000D8A404D0000E316E000E306E2104D8A4EA
:107C500004D0010E316E000E306E020E2118D8A431
:107C600004D0000E316E010E306EB8ECBBF0BCECEF
:107C7000BBF0EBECBBF001C011F002C012F0C1ECA4
:107C8000BBF0EBECBBF001C013F002C014F0C6EC8B
:107C9000BBF0EBECBBF001C015F002C016F0CBEC72
:107CA000BBF0EBECBBF001C017F002C018F0D0EC59
:107CB000BBF0EBECBBF001C019F002C01AF0D5EC40
:107CC000BBF0EBECBBF001C01BF002C01CF0DAEC27
:107CD000BBF0EBECBBF001C01DF002C01EF0DFEC0E
:107CE000BBF0EBECBBF001C00FF002C010F03104B0
:107CF000D8A482D03050D8A47FD011C001F012C0D7
:107D000002F01FC003F020C004F0000E066E000E4B
:107D1000056E320E076E000E086E0DECBDF013C03E
:107D200001F014C002F02CC003F02DC004F0000ECE
:107D3000066E010E056E340E076E000E086E0DEC19
:107D4000BDF015C001F016C002F01FC003F020C046
:107D500004F0000E066E020E056E360E076E000E63
:107D6000086E0DECBDF017C001F018C002F02CC079
:107D700003F02DC004F0000E066E030E056E380EE3
:107D8000076E000E086E0DECBDF019C001F01AC0B0
:107D900002F02CC003F02DC004F0000E066E040E9D
:107DA000056E3A0E076E000E086E0DECBDF01BC09E
:107DB00001F01CC002F01FC003F020C004F0000E50
:107DC000066E050E056E3C0E076E000E086E0DEC7D
:107DD000BDF01DC001F01EC002F02CC003F02DC08C
:107DE00004F0000E066E060E056E3E0E076E000EC7
:107DF000086E0DECBDF0FAD63004D8A482D0315014
:107E0000D8A47FD011C001F012C002F02CC003F042
:107E10002DC004F0000E066E000E056E320E076EC9
:107E2000000E086E0DECBDF013C001F014C002F09E
:107E30001FC003F020C004F0000E066E010E056E98
:107E4000340E076E000E086E0DECBDF015C001F08B
:107E500016C002F02CC003F02DC004F0000E066E18
:107E6000020E056E360E076E000E086E0DECBDF0AC
:107E700017C001F018C002F01FC003F020C004F0CA
:107E8000000E066E030E056E380E076E000E086EAD
:107E90000DECBDF019C001F01AC002F01FC003F0D4
:107EA00020C004F0000E066E040E056E3A0E076E3A
:107EB000000E086E0DECBDF01BC001F01CC002F0FE
:107EC0002CC003F02DC004F0000E066E050E056EEA
:107ED0003C0E076E000E086E0DECBDF01DC001F0EB
:107EE0001EC002F01FC003F020C004F0000E066E9A
:107EF000060E056E3E0E076E000E086E0DECBDF010
:107F000075D611C001F012C002F02CC003F02DC0D4
:107F100004F0000E066E000E056E320E076E000EA7
:107F2000086E0DECBDF013C001F014C002F02CC0BF
:107F300003F02DC004F0000E066E010E056E340E27
:107F4000076E000E086E0DECBDF015C001F016C0F6
:107F500002F02CC003F02DC004F0000E066E020EDD
:107F6000056E360E076E000E086E0DECBDF017C0E4
:107F700001F018C002F02CC003F02DC004F0000E78
:107F8000066E030E056E380E076E000E086E0DECC1
:107F9000BDF019C001F01AC002F02CC003F02DC0D2
:107FA00004F0000E066E040E056E3A0E076E000E0B
:107FB000086E0DECBDF01BC001F01CC002F02CC01F
:107FC00003F02DC004F0000E066E050E056E3C0E8B
:107FD000076E000E086E0DECBDF01DC001F01EC056
:107FE00002F02CC003F02DC004F0000E066E060E49
:107FF000056E3E0E076E000E086E0DECBDF0F6D558
:020000040020DA
:08000000FFFFFFFFFFFFFFFF00
:020000040030CA
:0E000000FF081F1EFF8285FF3FC03FE03F400C
:00000001FF
