:0400000053EF00F0CA
:0E0008002482FACF01F0FBCF02F08DEF00F062
:100018002480D8CF0FF0E8CF10F0E0CF11F0FACF5E
:1000280012F0FBCF13F0E9CF14F0EACF15F0E1CFCF
:1000380016F0E2CF17F0D9CF18F0DACF19F0F3CFD6
:100048001AF0F4CF1BF0F6CF1CF0F7CF1DF0F8CF65
:100058001EF0F5CF1FF01FC0F5FF1EC0F8FF1DC032
:10006800F7FF1CC0F6FF1BC0F4FF1AC0F3FF19C04E
:10007800DAFF18C0D9FF17C0E2FF16C0E1FF15C0AC
:10008800EAFF14C0E9FF13C0FBFF12C0FAFF11C05A
:10009800E0FF10C0E8FF0FC0D8FF24901000E7EF82
:1000A80000F0E1EC00F0EFEC00F0C3EC00F0ECEC59
:1000B80000F0000E216E000E206E26D0C282C2B261
:1000C800FED7C3CF20F0216AC45021262250205CDD
:1000D80023502158D8B003D08C908C82EFD7205071
:1000E800225C21502358D8B003D08C808C92E6D75C
:1000F8008C908C92F40E221807E12304D8A404D023
:10010800010E236E900E03D0010E236EF40E226EA4
:10011800D5D7E9CF03F0EACF04F0E1CF05F0E2CF7D
:1001280006F0D9CF07F0DACF08F0F3CF09F0F4CF13
:100138000AF0F6CF0BF0F7CF0CF0F8CF0DF0F5CFB3
:100148000EF00EC0F5FF0DC0F8FF0CC0F7FF0BC096
:10015800F6FF0AC0F4FF09C0F3FF08C0DAFF07C0C2
:10016800D9FF06C0E2FF05C0E1FF04C0EAFF03C0F3
:10017800E9FF02C0FBFF01C0FAFF24921100C19001
:10018800C192C194C196C08EC198C19AC09AC088C4
:10019800C096C094C082C090C294C296C298C29AB7
:1001A8009280928292849286928A9680968296848F
:1001B800938293889380C28012009B8CD388D38AC1
:1001C800D38C929C120024902492000155EF00F0E9
:0801D8009590959212001200AF
:020000040020DA
:08000000FFFFFFFFFFFFFFFF00
:020000040030CA
:0E000000FF081F1EFF8285FF3FC03FE03F400C
:00000001FF
