:0400000036EF09F0DE
:100D000000436F6D6D616E642053656E74202841E1
:100D10007272617920526574726163746564290D21
:100D20000A00436F6D6D616E642053656E742028F8
:100D3000417272617920457874656E646564290D2D
:100D40000A00436F6D6D616E642053656E742028D8
:100D50004172726179204261636B77617264290D1F
:100D60000A00436F6D6D616E642053656E742028B8
:100D7000417272617920466F7277617264290D0A3F
:100D80000000C5EC09F066EC08F0800E0F6E250E31
:100D9000106E000E116E000E126EC5EC08F053ECD2
:100DA00009F06AEC09F0000E226E000E216E000EB2
:100DB000246E000E236E000E266E000E256E000EB1
:100DC000286E000E276E000E2A6E000E296E000E91
:100DD0002C6E000E2B6E000E2E6E000E2D6E000E71
:100DE000306E000E2F6E898E000E1E6EC80E1D6EA8
:100DF000010E206EF40E1F6EBCEC09F00009D8B491
:100E00006FD0D2EC09F0316E000E336E000E326EF0
:100E1000000E356E000E346E000E376E000E366E0C
:100E2000000E396E000E386E000E3B6E000E3A6EEC
:100E3000000E3D6E000E3C6E000E3F6E000E3E6ECC
:100E4000000E416E000E406E897E650E3118D8A4EA
:100E50000FD0000E446E000E426E010E436E000E67
:100E6000456E220E026E0D0E036E11EC09F038D0A5
:100E7000720E3118D8A40FD0000E446E000E426ED0
:100E8000000E436E010E456E010E026E0D0E036ED6
:100E900011EC09F025D0660E3118D8A40FD0010E40
:100EA000446E000E426E000E436E000E456E620EE2
:100EB000026E0D0E036E11EC09F012D0620E3118A5
:100EC000D8A40ED0000E446E010E426E000E436E8A
:100ED000000E456E420E026E0D0E036E11EC09F00F
:100EE00032503310D8A408D0FBEC09F0AFEC09F075
:100EF00001C021F002C022F034503510D8A408D02F
:100F0000F6EC09F0AFEC09F001C023F002C024F0C8
:100F100036503710D8A408D0F1EC09F0AFEC09F046
:100F200001C025F002C026F038503910D8A408D0EE
:100F3000ECEC09F0AFEC09F001C027F002C028F09A
:100F40003A503B10D8A408D0E7EC09F0AFEC09F018
:100F500001C029F002C02AF03C503D10D8A408D0AE
:100F6000E2EC09F0AFEC09F001C02BF002C02CF06C
:100F70003E503F10D8A408D0DDEC09F0AFEC09F0EA
:100F800001C02DF002C02EF040504110D8A408D06E
:100F9000D8EC09F0AFEC09F001C02FF002C030F03E
:100FA0004404D8A40CD04250D8A409D04350D8A4AB
:100FB00006D04550D8A403D08DEC09F01DD74204CB
:100FC000D8A40CD04450D8A409D04350D8A406D0FB
:100FD0004550D8A403D09EEC09F00ED74450D8A4B5
:100FE0000CD04250D8A409D04304D8A406D0455010
:100FF000D8A403D07CEC09F0FFD67CEC09F0FCD639
:10100000000E0A6E08AE0AD0081E071E061E056CEA
:10101000000E062207220822010E0A6E04AE0AD034
:10102000041E031E021E016C000E02220322042273
:10103000010E0A1A000E0B6E000E0C6E000E0D6EE5
:10104000000E0E6E0550061007100810D8B42AD0F6
:10105000010E096E06D0D8900536063607360836DA
:10106000092A08AEF8D7D8900B360C360D360E3656
:101070000550015C065002580750035808500458A8
:10108000D8A009D00550015E0650025A0750035AF5
:101090000850045A0B80D8900832073206320532C5
:1010A000092EE1D70A50D8B408D00E1E0D1E0C1E12
:1010B0000B6C000E0C220D220E220BC001F00CC096
:1010C00002F00DC003F00EC004F01200939493865A
:1010D0006F8E6EAE6EAC02D06EBAFBD7739A709EF6
:1010E000709C709A70987096709470927080718EE7
:1010F000718C719A719871867194718271907294E9
:1011000072927280779E779C609C608A000E046E5B
:101110000A0E036E070E066E056803C001F004C0D8
:1011200002F002340232013202340232013202345D
:101130000232013201500F01006F0338E846E00B24
:101140000F01016F05C001F006C002F00234023247
:1011500001320234023201320234023201320150D1
:101160000F01186F0538E846E00B0F01196F0F01EA
:1011700001970D01D4816F9E6F9C6F9A6EAE120025
:101180006EAC12006EAA1200F9D70FC013F010C097
:1011900014F011C015F012C016F0060ED8901336D8
:1011A000143615361636E82EF9D7131E141E151EE2
:1011B000161E132A000E142215221622000E1324C6
:1011C000016E480E1420026EE80E1520036E010E0B
:1011D0001620046E0FC017F010C018F011C019F0DF
:1011E00012C01AF0060ED8901736183619361A366D
:1011F000E82EF9D717C005F018C006F019C007F09F
:101200001AC008F000EC08F001C01BF002C01CF08E
:101210001BC0AFFFAC98AB8E948E949CAB88AC8A0D
:101220001200000E076E000E066E10D0065002244B
:10123000046E07500320056E04C0F6FF05C0F7FFDB
:101240000800F550CCEC09F0064A072A06500224A3
:10125000046E07500320056E04C0F6FF05C0F7FFBB
:101260000800F5500009D8B41200E0D700EE32F0C3
:10127000140EEE6AE806FDE1000EF66E140EF76E2F
:10128000000EF86E00EE46F010EE04F00900F5CF07
:10129000EEFFE550E150FAE1000EF86E0D0EF76E2C
:1012A0000001C1EF06F0C190C192C194C196C08EF9
:1012B000C198C19AC09AC088C096C094C082C0909C
:1012C0009280928292849286928A96809682968466
:1012D000C280120095909592959495969598959ABE
:1012E000959C959E94909492949494969498949AA4
:1012F00093909392929E12008B808B928B848B960C
:101300008C808C928C848C968B888B9A8B8C8B9E09
:101310008C888C9A8C8C8C9E12008B808B828B8418
:101320008B868C808C828C848C868B888B8A8B8C31
:101330008B8E8C888C8A8C8C8C8E12008B908B92EE
:101340008B948B968C908C928C948C968B988B9A99
:101350008B9C8B9E8C988C9A8C9C8C9E1200C2824B
:10136000C2B2FED7C3CF03F0046AC450042603C040
:1013700001F004C002F01200010E016E9EAA9EBA96
:1013800002D0000E016E01501200D38CD38AD38894
:10139000D392D3909B8C1200016EACA2FED701C0F9
:1013A000ADFF12009EAA9EBA01D0FCD7AE5012002B
:1013B000C250C30B1C09C26E1200C250C30B1809E5
:1013C000C26E1200C250C30B1409C26E1200C2508A
:1013D000C30B1009C26E1200C250C30B0C09C26EBF
:1013E0001200C250C30B0809C26E1200C250C30BD8
:1013F0000409C26E1200C294C296C298C29A120028
:041400002003C800FD
:020000040020DA
:08000000FFFFFFFFFFFFFFFF00
:020000040030CA
:0E000000FF081F1EFF8285FF3FC03FE03F400C
:00000001FF
