:0400000053EF00F0CA
:0E0008002A82FACF01F0FBCF02F0A7EF04F03E
:100018002A80D8CF0FF0E8CF10F0E0CF11F0FACF58
:1000280012F0FBCF13F0E9CF14F0EACF15F0E1CFCF
:1000380016F0E2CF17F0D9CF18F0DACF19F0F3CFD6
:100048001AF0F4CF1BF0F6CF1CF0F7CF1DF0F8CF65
:100058001EF0F5CF1FF01FC0F5FF1EC0F8FF1DC032
:10006800F7FF1CC0F6FF1BC0F4FF1AC0F3FF19C04E
:10007800DAFF18C0D9FF17C0E2FF16C0E1FF15C0AC
:10008800EAFF14C0E9FF13C0FBFF12C0FAFF11C05A
:10009800E0FF10C0E8FF0FC0D8FF2A9010001BEF48
:1000A80005F015EC05F0DDEC04F0F7EC04F0000EBB
:1000B8000001646F000E636F000E0001666F000E92
:1000C800656F000E0001686F000E676F000E00017B
:1000D8006A6F000E696F000E00016C6F000E6B6F87
:1000E800000E00016E6F000E6D6F000E0001706F44
:1000F800000E6F6F000E0001726F000E716F000E20
:100108000001606F000E0001616F010E0001626F57
:10011800000E0001746FC80E736F030E0001766F36
:10012800200E756F43EC05F008EC05F020C063F075
:1001380021C064F03EEC05F008EC05F020C065F045
:1001480021C066F039EC05F008EC05F020C067F036
:1001580021C068F034EC05F008EC05F020C069F027
:1001680021C06AF02FEC05F008EC05F020C06BF018
:1001780021C06CF02AEC05F008EC05F020C06DF009
:1001880021C06EF025EC05F008EC05F020C06FF0FA
:1001980021C070F020EC05F008EC05F020C071F0EB
:1001A80021C072F000016005D8A444D1000161515A
:1001B8000001D8A43FD1000167510001631908E18B
:1001C8000001685100016419D8A402D0010E01D0C1
:1001D800000E246E256A00016D51241807E1000104
:1001E8006E512518D8A402D0010E01D0000E266E3B
:1001F800276A00017151261807E10001725127187A
:10020800D8A402D0010E01D0000E286E296A000180
:10021800735128183AE1000174512918D8A435D02F
:10022800000169510001651908E100016A510001E6
:100238006619D8A402D0010E01D0000E246E256ADA
:1002480000016B51241807E100016C512518D8A44E
:1002580002D0010E01D0000E266E276A00016F51F0
:10026800261807E1000170512718D8A402D0010E02
:1002780001D0000E286E296A00017551281805E181
:10028800000176512918D8B488D2000E0001626F97
:10029800000173510001635D00017451000164594C
:1002A800D8B003D08B908B820ED00001635100012F
:1002B800735D0001645100017459D8B002D08B807D
:1002C80001D08B908B92000175510001655D000192
:1002D800765100016659D8B003D08B948B860ED026
:1002E800000165510001755D0001665100017659F4
:1002F800D8B002D08B8401D08B948B9600017351B7
:100308000001675D0001745100016859D8B003D03D
:100318008C908C820ED0000167510001735D000142
:10032800685100017459D8B002D08C8001D08C90EB
:100338008C92000175510001695D00017651000140
:100348006A59D8B003D08C948C860ED000016951BC
:100358000001755D00016A5100017659D8B002D0DC
:100368008C8401D08C948C960001755100016B5DD2
:100378000001765100016C59D8B003D08B988B8A54
:100388000ED000016B510001755D00016C51000138
:100398007659D8B002D08B8801D08B988B9A0001FF
:1003A800735100016D5D0001745100016E59D8B0A0
:1003B80003D08B9C8B8E0ED000016D510001735DB4
:1003C80000016E5100017459D8B002D08B8C01D055
:1003D8008B9C8B9E0001755100016F5D0001765169
:1003E80000017059D8B003D08C988C8A0ED00001C7
:1003F8006F510001755D0001705100017659D8B048
:1004080002D08C8801D08C988C9A0001735100011D
:10041800715D0001745100017259D8A08CD200019D
:1004280071510001735D0001725100017459D8A027
:1004380048D185D200016105D8A445D10001605199
:100448000001D8A440D1000167510001631908E1F7
:100458000001685100016419D8A402D0010E01D02E
:10046800000E246E256A00016D51241807E1000171
:100478006E512518D8A402D0010E01D0000E266EA8
:10048800276A00017151261807E1000172512718E7
:10049800D8A402D0010E01D0000E286E296A0001EE
:1004A800755128183AE1000176512918D8A435D099
:1004B800000169510001651908E100016A51000154
:1004C8006619D8A402D0010E01D0000E246E256A48
:1004D80000016B51241807E100016C512518D8A4BC
:1004E80002D0010E01D0000E266E276A00016F515E
:1004F800261807E1000170512718D8A402D0010E70
:1005080001D0000E286E296A00017351281805E1F0
:10051800000174512918D8B440D1000E0001626F4F
:10052800000175510001635D0001765100016459B5
:10053800D8B003D08B908B820ED00001635100019C
:10054800755D0001645100017659D8B002D08B80E6
:1005580001D08B908B92000173510001655D000101
:10056800745100016659D8B003D08B948B860ED095
:10057800000165510001735D000166510001745965
:10058800D8B002D08B8401D08B948B960001755122
:100598000001675D0001765100016859D8B003D0A9
:1005A8008C908C820ED0000167510001755D0001AE
:1005B800685100017659D8B002D08C8001D08C9057
:1005C8008C92000173510001695D000174510001B2
:1005D8006A59D8B003D08C948C860ED0000169512A
:1005E8000001735D00016A5100017459D8B002D04E
:1005F8008C8401D08C948C960001735100016B5D42
:100608000001745100016C59D8B003D08B988B8AC3
:100618000ED000016B510001735D00016C510001A7
:100628007459D8B002D08B8801D08B988B9A00016E
:10063800755100016D5D0001765100016E59D8B009
:1006480003D08B9C8B8E0ED000016D510001755D1F
:1006580000016E5100017659D8B002D08B8C01D0C0
:100668008B9C8B9E0001735100016F5D00017451DA
:1006780000017059D8B003D08C988C8A0ED0000134
:100688006F510001735D0001705100017459D8B0B9
:1006980002D08C8801D08C988C9A00017551000189
:1006A800715D0001765100017259D8A044D1000152
:1006B80071510001755D0001725100017659D8B081
:1006C8003ED18C8C3DD1000167510001631908E1CE
:1006D8000001685100016419D8A402D0010E01D0AC
:1006E800000E246E256A00016D51241807E10001EF
:1006F8006E512518D8A402D0010E01D0000E266E26
:10070800276A00017151261807E100017251271864
:10071800D8A402D0010E01D0000E286E296A00016B
:10072800755128183EE1000176512918D8A439D00E
:10073800000169510001651908E100016A510001D1
:100748006619D8A402D0010E01D0000E246E256AC5
:1007580000016B51241807E100016C512518D8A439
:1007680002D0010E01D0000E266E276A00016F51DB
:10077800261807E1000170512718D8A402D0010EED
:1007880001D0000E286E296A00017551281809E168
:10079800000176512918D8A404D0010E0001626F17
:1007A800C1D4000E0001626F000175510001635D44
:1007B8000001765100016459D8B003D08B908B8228
:1007C8000ED0000163510001755D00016451000104
:1007D8007659D8B002D08B8001D08B908B920001D3
:1007E80075510001655D0001765100016659D8B068
:1007F80003D08B948B860ED0000165510001755D86
:100808000001665100017659D8B002D08B8401D01E
:100818008B948B96000175510001675D000176513C
:1008280000016859D8B003D08C908C820ED000019A
:1008380067510001755D0001685100017659D8B013
:1008480002D08C8001D08C908C92000175510001EF
:10085800695D0001765100016A59D8B003D08C94C3
:100868008C860ED0000169510001755D00016A5146
:1008780000017659D8B002D08C8401D08C948C9623
:100888000001755100016B5D0001765100016C5942
:10089800D8B003D08B988B8A0ED000016B51000121
:1008A800755D00016C5100017659D8B002D08B8873
:1008B80001D08B988B9A0001755100016D5D000184
:1008C800765100016E59D8B003D08B9C8B8E0ED018
:1008D80000016D510001755D00016E5100017659EE
:1008E800D8B002D08B8C01D08B9C8B9E00017551A7
:1008F80000016F5D0001765100017059D8B003D036
:100908008C988C8A0ED000016F510001755D000132
:10091800705100017659D8B002D08C8801D08C98DB
:100928008C9A000175510001715D0001765100013A
:100938007259D8B0BCD68C9C8C8E96EF00F08C9CEB
:100948008C9E96EF00F0E9CF03F0EACF04F0E1CFF8
:1009580005F0E2CF06F0D9CF07F0DACF08F0F3CFF1
:1009680009F0F4CF0AF0F6CF0BF0F7CF0CF0F8CF80
:100978000DF0F5CF0EF00EC0F5FF0DC0F8FF0CC05E
:10098800F7FF0BC0F6FF0AC0F4FF09C0F3FF08C069
:10099800DAFF07C0D9FF06C0E2FF05C0E1FF04C0C7
:1009A800EAFF03C0E9FF02C0FBFF01C0FAFF2A9279
:1009B8001100C190C192C194C196C08EC198C19ACC
:1009C800C09AC088C096C094C082C090928092821B
:1009D80092849286928A968096829684938293884D
:1009E8009380C280120095909592959495969598CB
:1009F800959A959C959E9490949294949496949894
:100A0800949A949C949E1200C282C2B2FED7C3CF1D
:100A180022F0236AC450232622C020F023C021F0EC
:100A280012009B8CD388D38AD38C929C12002A9074
:100A38002A92000155EF00F0C250C30B1C09C26E88
:100A48001200C250C30B1809C26E1200C250C30B69
:100A58001409C26E1200C250C30B1009C26E1200F4
:100A6800C250C30B0C09C26E1200C250C30B080956
:100A7800C26E1200C250C30B0409C26E1200C294A7
:080A8800C296C298C29A120046
:020000040020DA
:08000000FFFFFFFFFFFFFFFF00
:020000040030CA
:0E000000FF081F1EFF8285FF3FC03FE03F400C
:00000001FF
