:0400000043EFBBF01F
:020000040001F9
:1075E200609E12002003C800C294C296C298C29A3A
:1075F2001200C250C30B0409C26E1200C250C30B68
:107602000809C26E1200C250C30B0C09C26E1200EE
:10761200C250C30B1009C26E1200C250C30B140930
:10762200C26E1200C250C30B1809C26E1200C250C1
:10763200C30B1C09C26E1200D38CD38AD388D39297
:10764200D3909B8C1200C282C2B2FED7C3CF03F08A
:10765200046AC450042603C001F004C002F0120000
:1076620095909592959495969598959A959C959EB8
:1076720094909492949494969498949A949C949EB0
:10768200929E120000EE2EF0120EEE6AE806FDE166
:10769200E60EF66E750EF76E010EF86E00EE40F015
:1076A20010EE04F00900F5CFEEFFE550E150FAE1EB
:1076B200000196EFBDF0C190C192C194C196C08EF7
:1076C200C198C19AC09AC088C096C094C082C09026
:1076D2009280928292849286928A968096829684F0
:1076E200938293889380C2801200939493866F8EC4
:1076F2006EAE6EAC02D06EBAFBD7739A709E709C5F
:10770200709A70987096709470927080718E718C6D
:10771200719A719871867194718271907294729259
:107722007280779E779C609C608A000E046E0A0EBF
:10773200036E070E066E056803C001F004C002F076
:107742000234023201320234023201320234023293
:10775200013201500F01006F0338E846E00B0F01C0
:10776200016F05C001F006C002F00234023201329C
:1077720002340232013202340232013201500F016C
:10778200186F0538E846E00B0F01196F0F010197DA
:107792000D01D4816F9E6F9C6F9A6EAE12006EAC1B
:1077A20012006EAA1200F9D720EE07F00150D92676
:1077B2000250DA226DCFDFFF20EE06F00150D9260B
:1077C2000250DA226CCFDFFF20EE05F00150D926FD
:1077D2000250DA226BCFDFFF20EE04F00150D926EF
:1077E2000250DA226ACFDFFF20EE03F00150D926E1
:1077F2000250DA2269CFDFFF20EE02F00150D926D3
:107802000250DA2268CFDFFF20EE01F00150D926C4
:107812000250DA2267CFDFFF01C0D9FF02C0DAFFD0
:1078220066CFDFFF6150036E046AD89003360436D8
:10783200D89003360436D8900336043620EE08F08A
:107842000150D9260250DA2203C0DEFF04C0DDFF58
:1078520020EE08F00150D9260250DA2262CF03F05E
:10786200050E046ED8900332042EFCD70350DE12AC
:10787200000EDD1220EE0AF00150D9260250DA2263
:1078820065500F0BDF6E609E12004050051847E1F5
:1078920041500618D8A443D001C00BF002C00CF02E
:1078A2000B1E0C1E0B4A0C2A03500B2604500C22F2
:1078B2000A0E0B180C10D8A410D009C0D9FF0AC0A8
:1078C200DAFF010EDE6E000EDD6E07C0D9FF08C0C2
:1078D200DAFF000EDE6E000EDD6E03C00BF004C098
:1078E2000CF00B1E0C1E0B4A0C2A01500B260250E8
:1078F2000C220A0E0B180C10D8A4120009C0D9FFD2
:107902000AC0DAFF000EDE6E000EDD6E07C0D9FF80
:1079120008C0DAFF010EDE6E000EDD6E120042506C
:10792200051849E143500618D8A4120001C00BF013
:1079320002C00CF00B1E0C1E0B4A0C2A03500B2625
:1079420004500C22F60E0B1813E10C28D8A410D008
:1079520009C0D9FF0AC0DAFF010EDE6E000EDD6E2D
:1079620007C0D9FF08C0DAFF000EDE6E000EDD6E22
:1079720003C00BF004C00CF00B1E0C1E0B4A0C2AA9
:1079820001500B2602500C22F60E0B1814E10C28A3
:10799200D8A4120009C0D9FF0AC0DAFF000EDE6EB9
:1079A200000EDD6E07C0D9FF08C0DAFF010EDE6EE1
:1079B200000EDD6E1200120007C0D9FF08C0DAFF08
:1079C200DE50DE10D8A42BD00350015C04500258C4
:1079D200D8B008D0000E0C6E000E0B6E000E0E6EAC
:1079E200010E0AD00150035C02500458D8B006D0F0
:1079F200000E0C6E010E16D00D6E19D0000E0C6E1C
:107A0200000E0B6E000E0E6E000E0D6E07C0D9FF3B
:107A120008C0DAFF010EDE6E000EDD6E08D0000E29
:107A22000C6E000E0B6E000E0E6E000EE5D70550AA
:107A32000610D8A40BD00BB002D08B9001D08B8053
:107A42000DB002D08B9201D08B8212000504061079
:107A5200D8A40BD00BB002D08B9401D08B840DB084
:107A620002D08B9601D08B861200020E05180610EA
:107A7200D8A40BD00BB002D08C9001D08C800DB06A
:107A820002D08C9201D08C821200030E05180610CF
:107A9200D8A40BD00BB002D08C9401D08C840DB042
:107AA20002D08C9601D08C861200040E05180610A6
:107AB200D8A40BD00BB002D08B9801D08B880DB01C
:107AC20002D08B9A01D08B8A1200050E051806107F
:107AD200D8A40BD00BB002D08B9C01D08B8C0DB0F4
:107AE20002D08B9E01D08B8E1200060E0518061056
:107AF200D8A40BD00BB002D08C9801D08C880DB0DA
:107B020002D08C9A01D08C8A1200070E051806103A
:107B1200D8A412000BB002D08C9C01D08C8C0DB07A
:107B220002D08C9E01D08C8E12001DECBBF076EC44
:107B3200BBF05CECBBF031ECBBF0000E126E000E41
:107B4200116E000E186E000E176E000E146E000EEF
:107B5200136E000E1A6E000E196E000E1C6E000ED1
:107B62001B6E000E166E000E156E000E1E6E000EBF
:107B72001D6E000E106E000E0F6E000E206EC80EEF
:107B82001F6E030E2D6E200E2C6E60AE3FD0210EA6
:107B9200016E000E026ED5ECBBF0000E336E000ECD
:107BA200326E000E356E000E346E000E376E000E11
:107BB200366E000E396E000E386E000E3B6E000EF1
:107BC2003A6E000E3D6E000E3C6E000E3F6E000ED1
:107BD2003E6E000E2F6E000E2E6E897E2150D8A4AE
:107BE20004D0000E316E000E306E2104D8A404D0F1
:107BF200010E316E000E306E020E2118D8A404D090
:107C0200000E316E010E306EF1ECBAF0F5ECBAF006
:107C120024ECBBF001C011F002C012F0FAECBAF091
:107C220024ECBBF001C017F002C018F0FFECBAF070
:107C320024ECBBF001C013F002C014F004ECBBF062
:107C420024ECBBF001C019F002C01AF009ECBBF041
:107C520024ECBBF001C01BF002C01CF00EECBBF028
:107C620024ECBBF001C015F002C016F013ECBBF01F
:107C720024ECBBF001C01DF002C01EF02E502F10EC
:107C8200D8A408D018ECBBF024ECBBF001C00FF074
:107C920002C010F03104D8A4AED03050D8A4ABD07A
:107CA20019C001F01AC002F017C003F018C004F0A6
:107CB2002CC005F02DC006F0380E076E000E086EBF
:107CC200340E096E000E0A6E46ECBCF01BC001F0C9
:107CD2001CC002F01DC003F01EC004F02CC005F051
:107CE2002DC006F03A0E076E000E086E3E0E096EAB
:107CF200000E0A6E46ECBCF011C001F012C002F098
:107D02001FC003F020C004F0000E066E000E056EC8
:107D1200320E076E000E086EDDECBCF017C001F0EB
:107D220018C002F02CC003F02DC004F0000E066E45
:107D3200010E056E340E076E000E086EDDECBCF00F
:107D420013C001F014C002F01FC003F020C004F001
:107D5200000E066E020E056E360E076E000E086EDF
:107D6200DDECBCF019C001F01AC002F02CC003F027
:107D72002DC004F0000E066E030E056E380E076E5F
:107D8200000E086EDDECBCF01BC001F01CC002F05E
:107D92002CC003F02DC004F0000E066E040E056E1A
:107DA2003A0E076E000E086EDDECBCF015C001F055
:107DB20016C002F01FC003F020C004F0000E066ED1
:107DC200050E056E3C0E076E000E086EDDECBCF073
:107DD2001DC001F01EC002F02CC003F02DC004F043
:107DE200000E066E060E056E3E0E076E000E086E43
:107DF200DDECBCF0CAD63004D8A482D03150D8A46D
:107E02007FD011C001F012C002F02CC003F02DC0CF
:107E120004F0000E066E000E056E320E076E000EA6
:107E2200086EDDECBCF017C001F018C002F01FC0F4
:107E320003F020C004F0000E066E010E056E340E33
:107E4200076E000E086EDDECBCF013C001F014C02A
:107E520002F02CC003F02DC004F0000E066E020EDC
:107E6200056E360E076E000E086EDDECBCF019C012
:107E720001F01AC002F01FC003F020C004F0000E8F
:107E8200066E030E056E380E076E000E086EDDECF0
:107E9200BCF01BC001F01CC002F01FC003F020C0E8
:107EA20004F0000E066E040E056E3A0E076E000E0A
:107EB200086EDDECBCF015C001F016C002F02CC05B
:107EC20003F02DC004F0000E066E050E056E3C0E8A
:107ED200076E000E086EDDECBCF01DC001F01EC086
:107EE20002F01FC003F020C004F0000E066E060E62
:107EF200056E3E0E076E000E086EDDECBCF045D638
:107F020011C001F012C002F02CC003F02DC004F029
:107F1200000E066E000E056E320E076E000E086E23
:107F2200DDECBCF017C001F018C002F02CC003F069
:107F32002DC004F0000E066E010E056E340E076EA3
:107F4200000E086EDDECBCF013C001F014C002F0AC
:107F52002CC003F02DC004F0000E066E020E056E5A
:107F6200360E076E000E086EDDECBCF019C001F093
:107F72001AC002F02CC003F02DC004F0000E066EF1
:107F8200030E056E380E076E000E086EDDECBCF0B7
:107F92001BC001F01CC002F02CC003F02DC004F085
:107FA200000E066E040E056E3A0E076E000E086E87
:107FB200DDECBCF015C001F016C002F02CC003F0DD
:107FC2002DC004F0000E066E050E056E3C0E076E07
:107FD200000E086EDDECBCF01DC001F01EC002F008
:107FE2002CC003F02DC004F0000E066E060E056EC6
:0E7FF2003E0E076E000E086EDDECBCF0C6D52C
:020000040020DA
:08000000FFFFFFFFFFFFFFFF00
:020000040030CA
:0E000000FF081F1EFF8285FF3FC03FE03F400C
:00000001FF
