:0400000061EF00F0BC
:100008003A82FACF05F0FBCF06F0E9CF07F0EACF46
:1000180008F0E1CF09F0E2CF0AF0D9CF0BF0DACF40
:100028000CF0F3CF0DF0F4CF0EF0F6CF0FF0F7CFC2
:1000380010F0F8CF11F0F5CF12F0A4A020D0897EEF
:10004800130E016E000E026E19EC01F01350D8A4C5
:1000580004D0000E396E000E386E1304D8A404D0F4
:10006800010E396E000E386E020E1318D8A404D093
:10007800000E396E010E386E5EEC02F0A49012C0CC
:10008800F5FF11C0F8FF10C0F7FF0FC0F6FF0EC054
:10009800F4FF0DC0F3FF0CC0DAFF0BC0D9FF0AC094
:1000A800E2FF09C0E1FF08C0EAFF07C0E9FF06C098
:1000B800FBFF05C0FAFF3A92110022EF02F029EC8B
:1000C80002F08AEC01F030EC02F0E9EC01F003EC0C
:1000D80002F0000E296E000E286E000E2B6E000E28
:1000E8002A6E000E2D6E000E2C6E000E2F6E000E66
:1000F8002E6E000E316E000E306E000E336E000E46
:10010800326E000E356E000E346E000E376E000E25
:10011800366E000E256EC80E246E030E276E200E56
:10012800266E59EC02F015EC02F01EC028F01FC034
:1001380029F054EC02F015EC02F01EC02AF01FC0A2
:100148002BF04FEC02F015EC02F01EC02CF01FC093
:100158002DF04AEC02F015EC02F01EC02EF01FC084
:100168002FF045EC02F015EC02F01EC030F01FC075
:1001780031F040EC02F015EC02F01EC032F01FC066
:1001880033F03BEC02F015EC02F01EC034F01FC057
:1001980035F036EC02F015EC02F01EC036F01FC048
:1001A80037F03950D8A413D03850D8A410D08B9039
:1001B8008B828B948B868C908C828C948C868B987B
:1001C8008B8A8B9C8B8E8C988C8A8C9C15D039044E
:1001D800D8A414D03850D8A411D08B808B828B84AB
:1001E8008B868C808C828C848C868B888B8A8B8C7B
:1001F8008B8E8C888C8A8C8C8C8E93D73950D8A413
:1002080090D73804D8A48DD78B908B928B948B96EB
:100218008C908C928C948C968B988B9A8B9C8B9EC2
:100228008C988C9A8C9C8C9E7CD720EE07F0015081
:10023800D9260250DA226DCFDFFF20EE06F00150FA
:10024800D9260250DA226CCFDFFF20EE05F00150EC
:10025800D9260250DA226BCFDFFF20EE04F00150DE
:10026800D9260250DA226ACFDFFF20EE03F00150D0
:10027800D9260250DA2269CFDFFF20EE02F00150C2
:10028800D9260250DA2268CFDFFF20EE01F00150B4
:10029800D9260250DA2267CFDFFF01C0D9FF02C09A
:1002A800DAFF66CFDFFF6150036E046AD890033629
:1002B8000436D89003360436D8900336043620EE38
:1002C80008F00150D9260250DA2203C0DEFF04C02C
:1002D800DDFF20EE08F00150D9260250DA2262CF65
:1002E80003F0050E046ED8900332042EFCD7035099
:1002F800DE12000EDD1220EE0AF00150D92602505F
:10030800DA2265500F0BDF6E609E1200939493867D
:100318006F8E6EAE6EAC02D06EBAFBD7739A709EBB
:10032800709C709A70987096709470927080718EAC
:10033800718C719A719871867194718271907294AE
:1003480072927280779E779C609C608A000E216E04
:100358000A0E206E070E236E226820C01EF021C0F0
:100368001FF01F341F321E321F341F321E321F343B
:100378001F321E321E500F01006F2038E846E00B76
:100388000F01016F22C01EF023C01FF01F341F325F
:100398001E321F341F321E321F341F321E321E50AF
:1003A8000F01186F2238E846E00B0F01196F0F0193
:1003B80001970D01D4816F9E6F9C6F9A6EAE1200EB
:1003C8006EAC12006EAA1200F9D7C190C192C19406
:1003D800C196C08EC198C19AC09AC088C096C09470
:1003E800C082C0909280928292849286928A9680ED
:1003F80096829684938293889380C2801200959007
:100408009592959495969598959A959C959E949085
:100418009492949494969498949A949C949E929E70
:100428001200C282C2B2FED7C3CF20F0216AC450E4
:10043800212620C01EF021C01FF01200396A386A38
:100448003A903A92000163EF00F0D38CD38AD388B4
:10045800D392D3909B8C1200D09EF28EF28CA38004
:10046800A3821200C250C30B1C09C26E1200C250F4
:10047800C30B1809C26E1200C250C30B1409C26E16
:100488001200C250C30B1009C26E1200C250C30B37
:100498000C09C26E1200C250C30B0809C26E1200CA
:1004A800C250C30B0409C26E1200C294C296C2980D
:0804B800C29A1200609E1200BE
:020000040020DA
:08000000FFFFFFFFFFFFFFFF00
:020000040030CA
:0E000000FF081F1EFF8285FF3FC03FE03F400C
:00000001FF
